{
  "contractName": "DrugSupplyChain",
  "abi": [
    {
      "inputs": [],
      "stateMutability": "nonpayable",
      "type": "constructor"
    },
    {
      "anonymous": false,
      "inputs": [
        {
          "indexed": true,
          "internalType": "uint256",
          "name": "index",
          "type": "uint256"
        },
        {
          "indexed": false,
          "internalType": "string",
          "name": "drugName",
          "type": "string"
        },
        {
          "indexed": false,
          "internalType": "string",
          "name": "drugCode",
          "type": "string"
        },
        {
          "indexed": false,
          "internalType": "string",
          "name": "signature",
          "type": "string"
        },
        {
          "indexed": false,
          "internalType": "address",
          "name": "sender",
          "type": "address"
        },
        {
          "indexed": false,
          "internalType": "address",
          "name": "recipient",
          "type": "address"
        }
      ],
      "name": "TransactionAdded",
      "type": "event"
    },
    {
      "inputs": [
        {
          "internalType": "string",
          "name": "drugName",
          "type": "string"
        },
        {
          "internalType": "string",
          "name": "drugCode",
          "type": "string"
        },
        {
          "internalType": "string",
          "name": "signature",
          "type": "string"
        },
        {
          "internalType": "address payable",
          "name": "recipient",
          "type": "address"
        }
      ],
      "name": "addTransaction",
      "outputs": [],
      "stateMutability": "nonpayable",
      "type": "function"
    },
    {
      "inputs": [
        {
          "internalType": "uint256",
          "name": "index",
          "type": "uint256"
        }
      ],
      "name": "getTransaction",
      "outputs": [
        {
          "internalType": "uint256",
          "name": "",
          "type": "uint256"
        },
        {
          "internalType": "uint256",
          "name": "",
          "type": "uint256"
        },
        {
          "internalType": "string",
          "name": "",
          "type": "string"
        },
        {
          "internalType": "string",
          "name": "",
          "type": "string"
        },
        {
          "internalType": "string",
          "name": "",
          "type": "string"
        },
        {
          "internalType": "address",
          "name": "",
          "type": "address"
        },
        {
          "internalType": "address",
          "name": "",
          "type": "address"
        }
      ],
      "stateMutability": "view",
      "type": "function"
    },
    {
      "inputs": [],
      "name": "getTransactionCount",
      "outputs": [
        {
          "internalType": "uint256",
          "name": "",
          "type": "uint256"
        }
      ],
      "stateMutability": "view",
      "type": "function"
    },
    {
      "inputs": [
        {
          "internalType": "string",
          "name": "drugName",
          "type": "string"
        }
      ],
      "name": "getTransactionsByDrugName",
      "outputs": [
        {
          "components": [
            {
              "internalType": "uint256",
              "name": "index",
              "type": "uint256"
            },
            {
              "internalType": "uint256",
              "name": "timestamp",
              "type": "uint256"
            },
            {
              "internalType": "string",
              "name": "drugName",
              "type": "string"
            },
            {
              "internalType": "string",
              "name": "drugCode",
              "type": "string"
            },
            {
              "internalType": "string",
              "name": "signature",
              "type": "string"
            },
            {
              "internalType": "address",
              "name": "sender",
              "type": "address"
            },
            {
              "internalType": "address",
              "name": "recipient",
              "type": "address"
            }
          ],
          "internalType": "struct DrugSupplyChain.Transaction[]",
          "name": "",
          "type": "tuple[]"
        }
      ],
      "stateMutability": "view",
      "type": "function"
    },
    {
      "inputs": [
        {
          "internalType": "string",
          "name": "drugCode",
          "type": "string"
        }
      ],
      "name": "getTransactionsByDrugCode",
      "outputs": [
        {
          "components": [
            {
              "internalType": "uint256",
              "name": "index",
              "type": "uint256"
            },
            {
              "internalType": "uint256",
              "name": "timestamp",
              "type": "uint256"
            },
            {
              "internalType": "string",
              "name": "drugName",
              "type": "string"
            },
            {
              "internalType": "string",
              "name": "drugCode",
              "type": "string"
            },
            {
              "internalType": "string",
              "name": "signature",
              "type": "string"
            },
            {
              "internalType": "address",
              "name": "sender",
              "type": "address"
            },
            {
              "internalType": "address",
              "name": "recipient",
              "type": "address"
            }
          ],
          "internalType": "struct DrugSupplyChain.Transaction[]",
          "name": "",
          "type": "tuple[]"
        }
      ],
      "stateMutability": "view",
      "type": "function"
    },
    {
      "inputs": [],
      "name": "getLastTransaction",
      "outputs": [
        {
          "components": [
            {
              "internalType": "uint256",
              "name": "index",
              "type": "uint256"
            },
            {
              "internalType": "uint256",
              "name": "timestamp",
              "type": "uint256"
            },
            {
              "internalType": "string",
              "name": "drugName",
              "type": "string"
            },
            {
              "internalType": "string",
              "name": "drugCode",
              "type": "string"
            },
            {
              "internalType": "string",
              "name": "signature",
              "type": "string"
            },
            {
              "internalType": "address",
              "name": "sender",
              "type": "address"
            },
            {
              "internalType": "address",
              "name": "recipient",
              "type": "address"
            }
          ],
          "internalType": "struct DrugSupplyChain.Transaction",
          "name": "",
          "type": "tuple"
        }
      ],
      "stateMutability": "view",
      "type": "function"
    }
  ],
  "bytecode": "0x608060405234801561001057600080fd5b506000600181905550611fc0806100286000396000f3fe608060405234801561001057600080fd5b50600436106100625760003560e01c80632e7700f01461006757806333ea3dc81461008557806356fc38ec146100bb5780636066d262146100eb5780639a56d35c14610107578063f7e03fd814610137575b600080fd5b61006f610155565b60405161007c9190611239565b60405180910390f35b61009f600480360381019061009a9190611294565b61015f565b6040516100b29796959493929190611392565b60405180910390f35b6100d560048036038101906100d0919061154b565b6104aa565b6040516100e29190611768565b60405180910390f35b610105600480360381019061010091906117c8565b6108c6565b005b610121600480360381019061011c919061154b565b610a99565b60405161012e9190611768565b60405180910390f35b61013f610eb5565b60405161014c919061192d565b60405180910390f35b6000600154905090565b600080606080606060008060008811801561017c57506001548811155b6101bb576040517f08c379a00000000000000000000000000000000000000000000000000000000081526004016101b29061199b565b60405180910390fd5b60008060018a6101cb91906119ea565b815481106101dc576101db611a1e565b5b90600052602060002090600702016040518060e0016040529081600082015481526020016001820154815260200160028201805461021990611a7c565b80601f016020809104026020016040519081016040528092919081815260200182805461024590611a7c565b80156102925780601f1061026757610100808354040283529160200191610292565b820191906000526020600020905b81548152906001019060200180831161027557829003601f168201915b505050505081526020016003820180546102ab90611a7c565b80601f01602080910402602001604051908101604052809291908181526020018280546102d790611a7c565b80156103245780601f106102f957610100808354040283529160200191610324565b820191906000526020600020905b81548152906001019060200180831161030757829003601f168201915b5050505050815260200160048201805461033d90611a7c565b80601f016020809104026020016040519081016040528092919081815260200182805461036990611a7c565b80156103b65780601f1061038b576101008083540402835291602001916103b6565b820191906000526020600020905b81548152906001019060200180831161039957829003601f168201915b505050505081526020016005820160009054906101000a900473ffffffffffffffffffffffffffffffffffffffff1673ffffffffffffffffffffffffffffffffffffffff1673ffffffffffffffffffffffffffffffffffffffff1681526020016006820160009054906101000a900473ffffffffffffffffffffffffffffffffffffffff1673ffffffffffffffffffffffffffffffffffffffff1673ffffffffffffffffffffffffffffffffffffffff16815250509050806000015181602001518260400151836060015184608001518560a001518660c00151975097509750975097509750975050919395979092949650565b60606000805b600080549050811015610526578380519060200120600082815481106104d9576104d8611a1e565b5b90600052602060002090600702016003016040516104f79190611b50565b60405180910390200361051357818061050f90611b67565b9250505b808061051e90611b67565b9150506104b0565b5060008167ffffffffffffffff81111561054357610542611420565b5b60405190808252806020026020018201604052801561057c57816020015b6105696111b7565b8152602001906001900390816105615790505b5090506000805b6000805490508110156108ba578580519060200120600082815481106105ac576105ab611a1e565b5b90600052602060002090600702016003016040516105ca9190611b50565b6040518091039020036108a757600081815481106105eb576105ea611a1e565b5b90600052602060002090600702016040518060e0016040529081600082015481526020016001820154815260200160028201805461062890611a7c565b80601f016020809104026020016040519081016040528092919081815260200182805461065490611a7c565b80156106a15780601f10610676576101008083540402835291602001916106a1565b820191906000526020600020905b81548152906001019060200180831161068457829003601f168201915b505050505081526020016003820180546106ba90611a7c565b80601f01602080910402602001604051908101604052809291908181526020018280546106e690611a7c565b80156107335780601f1061070857610100808354040283529160200191610733565b820191906000526020600020905b81548152906001019060200180831161071657829003601f168201915b5050505050815260200160048201805461074c90611a7c565b80601f016020809104026020016040519081016040528092919081815260200182805461077890611a7c565b80156107c55780601f1061079a576101008083540402835291602001916107c5565b820191906000526020600020905b8154815290600101906020018083116107a857829003601f168201915b505050505081526020016005820160009054906101000a900473ffffffffffffffffffffffffffffffffffffffff1673ffffffffffffffffffffffffffffffffffffffff1673ffffffffffffffffffffffffffffffffffffffff1681526020016006820160009054906101000a900473ffffffffffffffffffffffffffffffffffffffff1673ffffffffffffffffffffffffffffffffffffffff1673ffffffffffffffffffffffffffffffffffffffff168152505083838151811061088d5761088c611a1e565b5b602002602001018190525081806108a390611b67565b9250505b80806108b290611b67565b915050610583565b50819350505050919050565b60018060008282546108d89190611baf565b9250508190555060006040518060e0016040528060015481526020014281526020018681526020018581526020018481526020013373ffffffffffffffffffffffffffffffffffffffff1681526020018373ffffffffffffffffffffffffffffffffffffffff168152509080600181540180825580915050600190039060005260206000209060070201600090919091909150600082015181600001556020820151816001015560408201518160020190816109949190611d8f565b5060608201518160030190816109aa9190611d8f565b5060808201518160040190816109c09190611d8f565b5060a08201518160050160006101000a81548173ffffffffffffffffffffffffffffffffffffffff021916908373ffffffffffffffffffffffffffffffffffffffff16021790555060c08201518160060160006101000a81548173ffffffffffffffffffffffffffffffffffffffff021916908373ffffffffffffffffffffffffffffffffffffffff16021790555050506001547f53cab8348a7bf4e379c1f54698e0b42622b92e4c4d27727b56cbeb40201ee5668585853386604051610a8b959493929190611eb6565b60405180910390a250505050565b60606000805b600080549050811015610b1557838051906020012060008281548110610ac857610ac7611a1e565b5b9060005260206000209060070201600201604051610ae69190611b50565b604051809103902003610b02578180610afe90611b67565b9250505b8080610b0d90611b67565b915050610a9f565b5060008167ffffffffffffffff811115610b3257610b31611420565b5b604051908082528060200260200182016040528015610b6b57816020015b610b586111b7565b815260200190600190039081610b505790505b5090506000805b600080549050811015610ea957858051906020012060008281548110610b9b57610b9a611a1e565b5b9060005260206000209060070201600201604051610bb99190611b50565b604051809103902003610e965760008181548110610bda57610bd9611a1e565b5b90600052602060002090600702016040518060e00160405290816000820154815260200160018201548152602001600282018054610c1790611a7c565b80601f0160208091040260200160405190810160405280929190818152602001828054610c4390611a7c565b8015610c905780601f10610c6557610100808354040283529160200191610c90565b820191906000526020600020905b815481529060010190602001808311610c7357829003601f168201915b50505050508152602001600382018054610ca990611a7c565b80601f0160208091040260200160405190810160405280929190818152602001828054610cd590611a7c565b8015610d225780601f10610cf757610100808354040283529160200191610d22565b820191906000526020600020905b815481529060010190602001808311610d0557829003601f168201915b50505050508152602001600482018054610d3b90611a7c565b80601f0160208091040260200160405190810160405280929190818152602001828054610d6790611a7c565b8015610db45780601f10610d8957610100808354040283529160200191610db4565b820191906000526020600020905b815481529060010190602001808311610d9757829003601f168201915b505050505081526020016005820160009054906101000a900473ffffffffffffffffffffffffffffffffffffffff1673ffffffffffffffffffffffffffffffffffffffff1673ffffffffffffffffffffffffffffffffffffffff1681526020016006820160009054906101000a900473ffffffffffffffffffffffffffffffffffffffff1673ffffffffffffffffffffffffffffffffffffffff1673ffffffffffffffffffffffffffffffffffffffff1681525050838381518110610e7c57610e7b611a1e565b5b60200260200101819052508180610e9290611b67565b9250505b8080610ea190611b67565b915050610b72565b50819350505050919050565b610ebd6111b7565b600060015411610f02576040517f08c379a0000000000000000000000000000000000000000000000000000000008152600401610ef990611f6a565b60405180910390fd5b600060018054610f1291906119ea565b81548110610f2357610f22611a1e565b5b90600052602060002090600702016040518060e00160405290816000820154815260200160018201548152602001600282018054610f6090611a7c565b80601f0160208091040260200160405190810160405280929190818152602001828054610f8c90611a7c565b8015610fd95780601f10610fae57610100808354040283529160200191610fd9565b820191906000526020600020905b815481529060010190602001808311610fbc57829003601f168201915b50505050508152602001600382018054610ff290611a7c565b80601f016020809104026020016040519081016040528092919081815260200182805461101e90611a7c565b801561106b5780601f106110405761010080835404028352916020019161106b565b820191906000526020600020905b81548152906001019060200180831161104e57829003601f168201915b5050505050815260200160048201805461108490611a7c565b80601f01602080910402602001604051908101604052809291908181526020018280546110b090611a7c565b80156110fd5780601f106110d2576101008083540402835291602001916110fd565b820191906000526020600020905b8154815290600101906020018083116110e057829003601f168201915b505050505081526020016005820160009054906101000a900473ffffffffffffffffffffffffffffffffffffffff1673ffffffffffffffffffffffffffffffffffffffff1673ffffffffffffffffffffffffffffffffffffffff1681526020016006820160009054906101000a900473ffffffffffffffffffffffffffffffffffffffff1673ffffffffffffffffffffffffffffffffffffffff1673ffffffffffffffffffffffffffffffffffffffff1681525050905090565b6040518060e001604052806000815260200160008152602001606081526020016060815260200160608152602001600073ffffffffffffffffffffffffffffffffffffffff168152602001600073ffffffffffffffffffffffffffffffffffffffff1681525090565b6000819050919050565b61123381611220565b82525050565b600060208201905061124e600083018461122a565b92915050565b6000604051905090565b600080fd5b600080fd5b61127181611220565b811461127c57600080fd5b50565b60008135905061128e81611268565b92915050565b6000602082840312156112aa576112a961125e565b5b60006112b88482850161127f565b91505092915050565b600081519050919050565b600082825260208201905092915050565b60005b838110156112fb5780820151818401526020810190506112e0565b60008484015250505050565b6000601f19601f8301169050919050565b6000611323826112c1565b61132d81856112cc565b935061133d8185602086016112dd565b61134681611307565b840191505092915050565b600073ffffffffffffffffffffffffffffffffffffffff82169050919050565b600061137c82611351565b9050919050565b61138c81611371565b82525050565b600060e0820190506113a7600083018a61122a565b6113b4602083018961122a565b81810360408301526113c68188611318565b905081810360608301526113da8187611318565b905081810360808301526113ee8186611318565b90506113fd60a0830185611383565b61140a60c0830184611383565b98975050505050505050565b600080fd5b600080fd5b7f4e487b7100000000000000000000000000000000000000000000000000000000600052604160045260246000fd5b61145882611307565b810181811067ffffffffffffffff8211171561147757611476611420565b5b80604052505050565b600061148a611254565b9050611496828261144f565b919050565b600067ffffffffffffffff8211156114b6576114b5611420565b5b6114bf82611307565b9050602081019050919050565b82818337600083830152505050565b60006114ee6114e98461149b565b611480565b90508281526020810184848401111561150a5761150961141b565b5b6115158482856114cc565b509392505050565b600082601f83011261153257611531611416565b5b81356115428482602086016114db565b91505092915050565b6000602082840312156115615761156061125e565b5b600082013567ffffffffffffffff81111561157f5761157e611263565b5b61158b8482850161151d565b91505092915050565b600081519050919050565b600082825260208201905092915050565b6000819050602082019050919050565b6115c981611220565b82525050565b600082825260208201905092915050565b60006115eb826112c1565b6115f581856115cf565b93506116058185602086016112dd565b61160e81611307565b840191505092915050565b61162281611371565b82525050565b600060e08301600083015161164060008601826115c0565b50602083015161165360208601826115c0565b506040830151848203604086015261166b82826115e0565b9150506060830151848203606086015261168582826115e0565b9150506080830151848203608086015261169f82826115e0565b91505060a08301516116b460a0860182611619565b5060c08301516116c760c0860182611619565b508091505092915050565b60006116de8383611628565b905092915050565b6000602082019050919050565b60006116fe82611594565b611708818561159f565b93508360208202850161171a856115b0565b8060005b85811015611756578484038952815161173785826116d2565b9450611742836116e6565b925060208a0199505060018101905061171e565b50829750879550505050505092915050565b6000602082019050818103600083015261178281846116f3565b905092915050565b600061179582611351565b9050919050565b6117a58161178a565b81146117b057600080fd5b50565b6000813590506117c28161179c565b92915050565b600080600080608085870312156117e2576117e161125e565b5b600085013567ffffffffffffffff811115611800576117ff611263565b5b61180c8782880161151d565b945050602085013567ffffffffffffffff81111561182d5761182c611263565b5b6118398782880161151d565b935050604085013567ffffffffffffffff81111561185a57611859611263565b5b6118668782880161151d565b9250506060611877878288016117b3565b91505092959194509250565b600060e08301600083015161189b60008601826115c0565b5060208301516118ae60208601826115c0565b50604083015184820360408601526118c682826115e0565b915050606083015184820360608601526118e082826115e0565b915050608083015184820360808601526118fa82826115e0565b91505060a083015161190f60a0860182611619565b5060c083015161192260c0860182611619565b508091505092915050565b600060208201905081810360008301526119478184611883565b905092915050565b7f496e76616c6964207472616e73616374696f6e20696e64657800000000000000600082015250565b60006119856019836112cc565b91506119908261194f565b602082019050919050565b600060208201905081810360008301526119b481611978565b9050919050565b7f4e487b7100000000000000000000000000000000000000000000000000000000600052601160045260246000fd5b60006119f582611220565b9150611a0083611220565b9250828203905081811115611a1857611a176119bb565b5b92915050565b7f4e487b7100000000000000000000000000000000000000000000000000000000600052603260045260246000fd5b7f4e487b7100000000000000000000000000000000000000000000000000000000600052602260045260246000fd5b60006002820490506001821680611a9457607f821691505b602082108103611aa757611aa6611a4d565b5b50919050565b600081905092915050565b60008190508160005260206000209050919050565b60008154611ada81611a7c565b611ae48186611aad565b94506001821660008114611aff5760018114611b1457611b47565b60ff1983168652811515820286019350611b47565b611b1d85611ab8565b60005b83811015611b3f57815481890152600182019150602081019050611b20565b838801955050505b50505092915050565b6000611b5c8284611acd565b915081905092915050565b6000611b7282611220565b91507fffffffffffffffffffffffffffffffffffffffffffffffffffffffffffffffff8203611ba457611ba36119bb565b5b600182019050919050565b6000611bba82611220565b9150611bc583611220565b9250828201905080821115611bdd57611bdc6119bb565b5b92915050565b60008190508160005260206000209050919050565b60006020601f8301049050919050565b600082821b905092915050565b600060088302611c457fffffffffffffffffffffffffffffffffffffffffffffffffffffffffffffffff82611c08565b611c4f8683611c08565b95508019841693508086168417925050509392505050565b6000819050919050565b6000611c8c611c87611c8284611220565b611c67565b611220565b9050919050565b6000819050919050565b611ca683611c71565b611cba611cb282611c93565b848454611c15565b825550505050565b600090565b611ccf611cc2565b611cda818484611c9d565b505050565b5b81811015611cfe57611cf3600082611cc7565b600181019050611ce0565b5050565b601f821115611d4357611d1481611be3565b611d1d84611bf8565b81016020851015611d2c578190505b611d40611d3885611bf8565b830182611cdf565b50505b505050565b600082821c905092915050565b6000611d6660001984600802611d48565b1980831691505092915050565b6000611d7f8383611d55565b9150826002028217905092915050565b611d98826112c1565b67ffffffffffffffff811115611db157611db0611420565b5b611dbb8254611a7c565b611dc6828285611d02565b600060209050601f831160018114611df95760008415611de7578287015190505b611df18582611d73565b865550611e59565b601f198416611e0786611be3565b60005b82811015611e2f57848901518255600182019150602085019450602081019050611e0a565b86831015611e4c5784890151611e48601f891682611d55565b8355505b6001600288020188555050505b505050505050565b6000611e7c611e77611e7284611351565b611c67565b611351565b9050919050565b6000611e8e82611e61565b9050919050565b6000611ea082611e83565b9050919050565b611eb081611e95565b82525050565b600060a0820190508181036000830152611ed08188611318565b90508181036020830152611ee48187611318565b90508181036040830152611ef88186611318565b9050611f076060830185611383565b611f146080830184611ea7565b9695505050505050565b7f4e6f207472616e73616374696f6e7320666f756e640000000000000000000000600082015250565b6000611f546015836112cc565b9150611f5f82611f1e565b602082019050919050565b60006020820190508181036000830152611f8381611f47565b905091905056fea2646970667358221220ceddc7a7fc07cc42cfd54ccac4cb9622c9fcaa351bfeaee777015410df8d56b664736f6c63430008130033",
  "immutableReferences": {},
  "source": "// SPDX-License-Identifier: UNLICENSED\r\npragma solidity >=0.8.2 <0.9.0;\r\n\r\ncontract DrugSupplyChain {\r\n    struct Transaction {\r\n    uint256 index;\r\n    uint256 timestamp;\r\n    string drugName;\r\n    string drugCode;\r\n    string signature;\r\n    address sender;\r\n    address recipient;\r\n    }\r\n    \r\n    event TransactionAdded(uint256 indexed index,string drugName, string drugCode, string signature, address sender, address recipient);\r\n\r\n    Transaction[] chain;\r\n    uint256 chainCount;\r\n\r\n    constructor() {\r\n        chainCount = 0;\r\n    }\r\n\r\n    function addTransaction(string memory drugName, string memory drugCode, string memory signature, address payable recipient) public {\r\n        chainCount += 1;\r\n\r\n        chain.push(\r\n            Transaction(\r\n                chainCount,\r\n                block.timestamp,\r\n                drugName,\r\n                drugCode,\r\n                signature,\r\n                msg.sender,\r\n                recipient\r\n            )\r\n        );\r\n\r\n        emit TransactionAdded(chainCount,drugName, drugCode, signature, msg.sender, recipient);\r\n    }\r\n\r\n    function getTransaction(uint256 index)\r\n        public\r\n        view\r\n        returns (\r\n            uint256,\r\n            uint256,\r\n            string memory,\r\n            string memory,\r\n            string memory,\r\n            address,\r\n            address\r\n        )\r\n    {\r\n        require(index > 0 && index <= chainCount, \"Invalid transaction index\");\r\n        Transaction memory transaction = chain[index - 1];\r\n        return (\r\n            transaction.index,\r\n            transaction.timestamp,\r\n            transaction.drugName,\r\n            transaction.drugCode,\r\n            transaction.signature,\r\n            transaction.sender,\r\n            transaction.recipient\r\n        );\r\n    }\r\n\r\n    function getTransactionCount() public view returns (uint256) {\r\n        return chainCount;\r\n    }\r\n\r\n    function getTransactionsByDrugName(string memory drugName)\r\n        public\r\n        view\r\n        returns (Transaction[] memory)\r\n    {\r\n        uint256 count = 0;\r\n        for (uint256 i = 0; i < chain.length; i++) {\r\n            if (keccak256(bytes(chain[i].drugName)) == keccak256(bytes(drugName))) {\r\n                count++;\r\n            }\r\n        }\r\n\r\n        Transaction[] memory transactions = new Transaction[](count);\r\n        uint256 index = 0;\r\n        for (uint256 i = 0; i < chain.length; i++) {\r\n            if (keccak256(bytes(chain[i].drugName)) == keccak256(bytes(drugName))) {\r\n                transactions[index] = chain[i];\r\n                index++;\r\n            }\r\n        }\r\n\r\n        return transactions;\r\n    }\r\n\r\n    function getTransactionsByDrugCode(string memory drugCode)\r\n        public\r\n        view\r\n        returns (Transaction[] memory)\r\n    {\r\n        uint256 count = 0;\r\n        for (uint256 i = 0; i < chain.length; i++) {\r\n            if (keccak256(bytes(chain[i].drugCode)) == keccak256(bytes(drugCode))) {\r\n                count++;\r\n        }\r\n    }\r\n\r\n    Transaction[] memory transactions = new Transaction[](count);\r\n    uint256 index = 0;\r\n    for (uint256 i = 0; i < chain.length; i++) {\r\n        if (keccak256(bytes(chain[i].drugCode)) == keccak256(bytes(drugCode))) {\r\n            transactions[index] = chain[i];\r\n            index++;\r\n        }\r\n    }\r\n\r\n    return transactions;\r\n   }\r\n\r\n    function getLastTransaction() public view returns (Transaction memory) {\r\n       require(chainCount > 0, \"No transactions found\");\r\n       return chain[chainCount - 1];\r\n    }\r\n    \r\n\r\n    \r\n}",
  "sourcePath": "C:\\Users\\SAIFUR\\Desktop\\SPL-03\\MediQuick\\server\\contracts\\DrugSupplyChain.sol",
  "compiler": {
    "name": "solc",
    "version": "0.8.19+commit.7dd6d404.Emscripten.clang"
  },
  "schemaVersion": "3.4.13",
  "updatedAt": "2023-05-11T14:02:36.495Z",
  "devdoc": {
    "kind": "dev",
    "methods": {},
    "version": 1
  },
  "userdoc": {
    "kind": "user",
    "methods": {},
    "version": 1
  }
}