{
  "contractName": "DrugSupplyChain",
  "abi": [
    {
      "inputs": [],
      "stateMutability": "nonpayable",
      "type": "constructor"
    },
    {
      "anonymous": false,
      "inputs": [
        {
          "indexed": true,
          "internalType": "uint256",
          "name": "index",
          "type": "uint256"
        },
        {
          "indexed": false,
          "internalType": "string",
          "name": "drugName",
          "type": "string"
        },
        {
          "indexed": false,
          "internalType": "string",
          "name": "drugCode",
          "type": "string"
        },
        {
          "indexed": false,
          "internalType": "string",
          "name": "signature",
          "type": "string"
        },
        {
          "indexed": false,
          "internalType": "address",
          "name": "sender",
          "type": "address"
        },
        {
          "indexed": false,
          "internalType": "address",
          "name": "recipient",
          "type": "address"
        }
      ],
      "name": "TransactionAdded",
      "type": "event"
    },
    {
      "inputs": [
        {
          "internalType": "string",
          "name": "drugName",
          "type": "string"
        },
        {
          "internalType": "string",
          "name": "drugCode",
          "type": "string"
        },
        {
          "internalType": "string",
          "name": "signature",
          "type": "string"
        },
        {
          "internalType": "address payable",
          "name": "recipient",
          "type": "address"
        }
      ],
      "name": "addTransaction",
      "outputs": [],
      "stateMutability": "nonpayable",
      "type": "function"
    },
    {
      "inputs": [],
      "name": "getTransaction",
      "outputs": [
        {
          "components": [
            {
              "internalType": "uint256",
              "name": "index",
              "type": "uint256"
            },
            {
              "internalType": "uint256",
              "name": "timestamp",
              "type": "uint256"
            },
            {
              "internalType": "string",
              "name": "drugName",
              "type": "string"
            },
            {
              "internalType": "string",
              "name": "drugCode",
              "type": "string"
            },
            {
              "internalType": "string",
              "name": "signature",
              "type": "string"
            },
            {
              "internalType": "address",
              "name": "sender",
              "type": "address"
            },
            {
              "internalType": "address",
              "name": "recipient",
              "type": "address"
            }
          ],
          "internalType": "struct DrugSupplyChain.Transaction[]",
          "name": "",
          "type": "tuple[]"
        }
      ],
      "stateMutability": "view",
      "type": "function",
      "constant": true
    },
    {
      "inputs": [
        {
          "internalType": "uint256",
          "name": "index",
          "type": "uint256"
        }
      ],
      "name": "getTransactionByIndex",
      "outputs": [
        {
          "internalType": "uint256",
          "name": "",
          "type": "uint256"
        },
        {
          "internalType": "uint256",
          "name": "",
          "type": "uint256"
        },
        {
          "internalType": "string",
          "name": "",
          "type": "string"
        },
        {
          "internalType": "string",
          "name": "",
          "type": "string"
        },
        {
          "internalType": "string",
          "name": "",
          "type": "string"
        },
        {
          "internalType": "address",
          "name": "",
          "type": "address"
        },
        {
          "internalType": "address",
          "name": "",
          "type": "address"
        }
      ],
      "stateMutability": "view",
      "type": "function",
      "constant": true
    },
    {
      "inputs": [],
      "name": "getTransactionCount",
      "outputs": [
        {
          "internalType": "uint256",
          "name": "",
          "type": "uint256"
        }
      ],
      "stateMutability": "view",
      "type": "function",
      "constant": true
    },
    {
      "inputs": [
        {
          "internalType": "string",
          "name": "drugName",
          "type": "string"
        }
      ],
      "name": "getTransactionsByDrugName",
      "outputs": [
        {
          "components": [
            {
              "internalType": "uint256",
              "name": "index",
              "type": "uint256"
            },
            {
              "internalType": "uint256",
              "name": "timestamp",
              "type": "uint256"
            },
            {
              "internalType": "string",
              "name": "drugName",
              "type": "string"
            },
            {
              "internalType": "string",
              "name": "drugCode",
              "type": "string"
            },
            {
              "internalType": "string",
              "name": "signature",
              "type": "string"
            },
            {
              "internalType": "address",
              "name": "sender",
              "type": "address"
            },
            {
              "internalType": "address",
              "name": "recipient",
              "type": "address"
            }
          ],
          "internalType": "struct DrugSupplyChain.Transaction[]",
          "name": "",
          "type": "tuple[]"
        }
      ],
      "stateMutability": "view",
      "type": "function",
      "constant": true
    },
    {
      "inputs": [
        {
          "internalType": "string",
          "name": "drugCode",
          "type": "string"
        }
      ],
      "name": "getTransactionsByDrugCode",
      "outputs": [
        {
          "components": [
            {
              "internalType": "uint256",
              "name": "index",
              "type": "uint256"
            },
            {
              "internalType": "uint256",
              "name": "timestamp",
              "type": "uint256"
            },
            {
              "internalType": "string",
              "name": "drugName",
              "type": "string"
            },
            {
              "internalType": "string",
              "name": "drugCode",
              "type": "string"
            },
            {
              "internalType": "string",
              "name": "signature",
              "type": "string"
            },
            {
              "internalType": "address",
              "name": "sender",
              "type": "address"
            },
            {
              "internalType": "address",
              "name": "recipient",
              "type": "address"
            }
          ],
          "internalType": "struct DrugSupplyChain.Transaction[]",
          "name": "",
          "type": "tuple[]"
        }
      ],
      "stateMutability": "view",
      "type": "function",
      "constant": true
    },
    {
      "inputs": [],
      "name": "getLastTransaction",
      "outputs": [
        {
          "components": [
            {
              "internalType": "uint256",
              "name": "index",
              "type": "uint256"
            },
            {
              "internalType": "uint256",
              "name": "timestamp",
              "type": "uint256"
            },
            {
              "internalType": "string",
              "name": "drugName",
              "type": "string"
            },
            {
              "internalType": "string",
              "name": "drugCode",
              "type": "string"
            },
            {
              "internalType": "string",
              "name": "signature",
              "type": "string"
            },
            {
              "internalType": "address",
              "name": "sender",
              "type": "address"
            },
            {
              "internalType": "address",
              "name": "recipient",
              "type": "address"
            }
          ],
          "internalType": "struct DrugSupplyChain.Transaction",
          "name": "",
          "type": "tuple"
        }
      ],
      "stateMutability": "view",
      "type": "function",
      "constant": true
    }
  ],
  "bytecode": "0x608060405234801561001057600080fd5b5060006001819055506122ce806100286000396000f3fe608060405234801561001057600080fd5b506004361061007d5760003560e01c80636066d2621161005b5780636066d262146100ee578063869152e71461010a5780639a56d35c14610140578063f7e03fd8146101705761007d565b80632e7700f01461008257806356fc38ec146100a057806359705f81146100d0575b600080fd5b61008a61018e565b6040516100979190611547565b60405180910390f35b6100ba60048036038101906100b591906116bc565b610198565b6040516100c79190611940565b60405180910390f35b6100d86105b4565b6040516100e59190611940565b60405180910390f35b610108600480360381019061010391906119a0565b610889565b005b610124600480360381019061011f9190611a87565b610a5c565b6040516101379796959493929190611b0d565b60405180910390f35b61015a600480360381019061015591906116bc565b610da7565b6040516101679190611940565b60405180910390f35b6101786111c3565b6040516101859190611c3b565b60405180910390f35b6000600154905090565b60606000805b600080549050811015610214578380519060200120600082815481106101c7576101c6611c5d565b5b90600052602060002090600702016003016040516101e59190611d8f565b6040518091039020036102015781806101fd90611dd5565b9250505b808061020c90611dd5565b91505061019e565b5060008167ffffffffffffffff81111561023157610230611591565b5b60405190808252806020026020018201604052801561026a57816020015b6102576114c5565b81526020019060019003908161024f5790505b5090506000805b6000805490508110156105a85785805190602001206000828154811061029a57610299611c5d565b5b90600052602060002090600702016003016040516102b89190611d8f565b60405180910390200361059557600081815481106102d9576102d8611c5d565b5b90600052602060002090600702016040518060e0016040529081600082015481526020016001820154815260200160028201805461031690611cbb565b80601f016020809104026020016040519081016040528092919081815260200182805461034290611cbb565b801561038f5780601f106103645761010080835404028352916020019161038f565b820191906000526020600020905b81548152906001019060200180831161037257829003601f168201915b505050505081526020016003820180546103a890611cbb565b80601f01602080910402602001604051908101604052809291908181526020018280546103d490611cbb565b80156104215780601f106103f657610100808354040283529160200191610421565b820191906000526020600020905b81548152906001019060200180831161040457829003601f168201915b5050505050815260200160048201805461043a90611cbb565b80601f016020809104026020016040519081016040528092919081815260200182805461046690611cbb565b80156104b35780601f10610488576101008083540402835291602001916104b3565b820191906000526020600020905b81548152906001019060200180831161049657829003601f168201915b505050505081526020016005820160009054906101000a900473ffffffffffffffffffffffffffffffffffffffff1673ffffffffffffffffffffffffffffffffffffffff1673ffffffffffffffffffffffffffffffffffffffff1681526020016006820160009054906101000a900473ffffffffffffffffffffffffffffffffffffffff1673ffffffffffffffffffffffffffffffffffffffff1673ffffffffffffffffffffffffffffffffffffffff168152505083838151811061057b5761057a611c5d565b5b6020026020010181905250818061059190611dd5565b9250505b80806105a090611dd5565b915050610271565b50819350505050919050565b60606000805480602002602001604051908101604052809291908181526020016000905b8282101561088057838290600052602060002090600702016040518060e0016040529081600082015481526020016001820154815260200160028201805461061f90611cbb565b80601f016020809104026020016040519081016040528092919081815260200182805461064b90611cbb565b80156106985780601f1061066d57610100808354040283529160200191610698565b820191906000526020600020905b81548152906001019060200180831161067b57829003601f168201915b505050505081526020016003820180546106b190611cbb565b80601f01602080910402602001604051908101604052809291908181526020018280546106dd90611cbb565b801561072a5780601f106106ff5761010080835404028352916020019161072a565b820191906000526020600020905b81548152906001019060200180831161070d57829003601f168201915b5050505050815260200160048201805461074390611cbb565b80601f016020809104026020016040519081016040528092919081815260200182805461076f90611cbb565b80156107bc5780601f10610791576101008083540402835291602001916107bc565b820191906000526020600020905b81548152906001019060200180831161079f57829003601f168201915b505050505081526020016005820160009054906101000a900473ffffffffffffffffffffffffffffffffffffffff1673ffffffffffffffffffffffffffffffffffffffff1673ffffffffffffffffffffffffffffffffffffffff1681526020016006820160009054906101000a900473ffffffffffffffffffffffffffffffffffffffff1673ffffffffffffffffffffffffffffffffffffffff1673ffffffffffffffffffffffffffffffffffffffff1681525050815260200190600101906105d8565b50505050905090565b600180600082825461089b9190611e1d565b9250508190555060006040518060e0016040528060015481526020014281526020018681526020018581526020018481526020013373ffffffffffffffffffffffffffffffffffffffff1681526020018373ffffffffffffffffffffffffffffffffffffffff168152509080600181540180825580915050600190039060005260206000209060070201600090919091909150600082015181600001556020820151816001015560408201518160020190816109579190611ffd565b50606082015181600301908161096d9190611ffd565b5060808201518160040190816109839190611ffd565b5060a08201518160050160006101000a81548173ffffffffffffffffffffffffffffffffffffffff021916908373ffffffffffffffffffffffffffffffffffffffff16021790555060c08201518160060160006101000a81548173ffffffffffffffffffffffffffffffffffffffff021916908373ffffffffffffffffffffffffffffffffffffffff16021790555050506001547f53cab8348a7bf4e379c1f54698e0b42622b92e4c4d27727b56cbeb40201ee5668585853386604051610a4e959493929190612124565b60405180910390a250505050565b6000806060806060600080600088118015610a7957506001548811155b610ab8576040517f08c379a0000000000000000000000000000000000000000000000000000000008152600401610aaf906121d8565b60405180910390fd5b60008060018a610ac891906121f8565b81548110610ad957610ad8611c5d565b5b90600052602060002090600702016040518060e00160405290816000820154815260200160018201548152602001600282018054610b1690611cbb565b80601f0160208091040260200160405190810160405280929190818152602001828054610b4290611cbb565b8015610b8f5780601f10610b6457610100808354040283529160200191610b8f565b820191906000526020600020905b815481529060010190602001808311610b7257829003601f168201915b50505050508152602001600382018054610ba890611cbb565b80601f0160208091040260200160405190810160405280929190818152602001828054610bd490611cbb565b8015610c215780601f10610bf657610100808354040283529160200191610c21565b820191906000526020600020905b815481529060010190602001808311610c0457829003601f168201915b50505050508152602001600482018054610c3a90611cbb565b80601f0160208091040260200160405190810160405280929190818152602001828054610c6690611cbb565b8015610cb35780601f10610c8857610100808354040283529160200191610cb3565b820191906000526020600020905b815481529060010190602001808311610c9657829003601f168201915b505050505081526020016005820160009054906101000a900473ffffffffffffffffffffffffffffffffffffffff1673ffffffffffffffffffffffffffffffffffffffff1673ffffffffffffffffffffffffffffffffffffffff1681526020016006820160009054906101000a900473ffffffffffffffffffffffffffffffffffffffff1673ffffffffffffffffffffffffffffffffffffffff1673ffffffffffffffffffffffffffffffffffffffff16815250509050806000015181602001518260400151836060015184608001518560a001518660c00151975097509750975097509750975050919395979092949650565b60606000805b600080549050811015610e2357838051906020012060008281548110610dd657610dd5611c5d565b5b9060005260206000209060070201600201604051610df49190611d8f565b604051809103902003610e10578180610e0c90611dd5565b9250505b8080610e1b90611dd5565b915050610dad565b5060008167ffffffffffffffff811115610e4057610e3f611591565b5b604051908082528060200260200182016040528015610e7957816020015b610e666114c5565b815260200190600190039081610e5e5790505b5090506000805b6000805490508110156111b757858051906020012060008281548110610ea957610ea8611c5d565b5b9060005260206000209060070201600201604051610ec79190611d8f565b6040518091039020036111a45760008181548110610ee857610ee7611c5d565b5b90600052602060002090600702016040518060e00160405290816000820154815260200160018201548152602001600282018054610f2590611cbb565b80601f0160208091040260200160405190810160405280929190818152602001828054610f5190611cbb565b8015610f9e5780601f10610f7357610100808354040283529160200191610f9e565b820191906000526020600020905b815481529060010190602001808311610f8157829003601f168201915b50505050508152602001600382018054610fb790611cbb565b80601f0160208091040260200160405190810160405280929190818152602001828054610fe390611cbb565b80156110305780601f1061100557610100808354040283529160200191611030565b820191906000526020600020905b81548152906001019060200180831161101357829003601f168201915b5050505050815260200160048201805461104990611cbb565b80601f016020809104026020016040519081016040528092919081815260200182805461107590611cbb565b80156110c25780601f10611097576101008083540402835291602001916110c2565b820191906000526020600020905b8154815290600101906020018083116110a557829003601f168201915b505050505081526020016005820160009054906101000a900473ffffffffffffffffffffffffffffffffffffffff1673ffffffffffffffffffffffffffffffffffffffff1673ffffffffffffffffffffffffffffffffffffffff1681526020016006820160009054906101000a900473ffffffffffffffffffffffffffffffffffffffff1673ffffffffffffffffffffffffffffffffffffffff1673ffffffffffffffffffffffffffffffffffffffff168152505083838151811061118a57611189611c5d565b5b602002602001018190525081806111a090611dd5565b9250505b80806111af90611dd5565b915050610e80565b50819350505050919050565b6111cb6114c5565b600060015411611210576040517f08c379a000000000000000000000000000000000000000000000000000000000815260040161120790612278565b60405180910390fd5b60006001805461122091906121f8565b8154811061123157611230611c5d565b5b90600052602060002090600702016040518060e0016040529081600082015481526020016001820154815260200160028201805461126e90611cbb565b80601f016020809104026020016040519081016040528092919081815260200182805461129a90611cbb565b80156112e75780601f106112bc576101008083540402835291602001916112e7565b820191906000526020600020905b8154815290600101906020018083116112ca57829003601f168201915b5050505050815260200160038201805461130090611cbb565b80601f016020809104026020016040519081016040528092919081815260200182805461132c90611cbb565b80156113795780601f1061134e57610100808354040283529160200191611379565b820191906000526020600020905b81548152906001019060200180831161135c57829003601f168201915b5050505050815260200160048201805461139290611cbb565b80601f01602080910402602001604051908101604052809291908181526020018280546113be90611cbb565b801561140b5780601f106113e05761010080835404028352916020019161140b565b820191906000526020600020905b8154815290600101906020018083116113ee57829003601f168201915b505050505081526020016005820160009054906101000a900473ffffffffffffffffffffffffffffffffffffffff1673ffffffffffffffffffffffffffffffffffffffff1673ffffffffffffffffffffffffffffffffffffffff1681526020016006820160009054906101000a900473ffffffffffffffffffffffffffffffffffffffff1673ffffffffffffffffffffffffffffffffffffffff1673ffffffffffffffffffffffffffffffffffffffff1681525050905090565b6040518060e001604052806000815260200160008152602001606081526020016060815260200160608152602001600073ffffffffffffffffffffffffffffffffffffffff168152602001600073ffffffffffffffffffffffffffffffffffffffff1681525090565b6000819050919050565b6115418161152e565b82525050565b600060208201905061155c6000830184611538565b92915050565b6000604051905090565b600080fd5b600080fd5b600080fd5b600080fd5b6000601f19601f8301169050919050565b7f4e487b7100000000000000000000000000000000000000000000000000000000600052604160045260246000fd5b6115c982611580565b810181811067ffffffffffffffff821117156115e8576115e7611591565b5b80604052505050565b60006115fb611562565b905061160782826115c0565b919050565b600067ffffffffffffffff82111561162757611626611591565b5b61163082611580565b9050602081019050919050565b82818337600083830152505050565b600061165f61165a8461160c565b6115f1565b90508281526020810184848401111561167b5761167a61157b565b5b61168684828561163d565b509392505050565b600082601f8301126116a3576116a2611576565b5b81356116b384826020860161164c565b91505092915050565b6000602082840312156116d2576116d161156c565b5b600082013567ffffffffffffffff8111156116f0576116ef611571565b5b6116fc8482850161168e565b91505092915050565b600081519050919050565b600082825260208201905092915050565b6000819050602082019050919050565b61173a8161152e565b82525050565b600081519050919050565b600082825260208201905092915050565b60005b8381101561177a57808201518184015260208101905061175f565b60008484015250505050565b600061179182611740565b61179b818561174b565b93506117ab81856020860161175c565b6117b481611580565b840191505092915050565b600073ffffffffffffffffffffffffffffffffffffffff82169050919050565b60006117ea826117bf565b9050919050565b6117fa816117df565b82525050565b600060e0830160008301516118186000860182611731565b50602083015161182b6020860182611731565b50604083015184820360408601526118438282611786565b9150506060830151848203606086015261185d8282611786565b915050608083015184820360808601526118778282611786565b91505060a083015161188c60a08601826117f1565b5060c083015161189f60c08601826117f1565b508091505092915050565b60006118b68383611800565b905092915050565b6000602082019050919050565b60006118d682611705565b6118e08185611710565b9350836020820285016118f285611721565b8060005b8581101561192e578484038952815161190f85826118aa565b945061191a836118be565b925060208a019950506001810190506118f6565b50829750879550505050505092915050565b6000602082019050818103600083015261195a81846118cb565b905092915050565b600061196d826117bf565b9050919050565b61197d81611962565b811461198857600080fd5b50565b60008135905061199a81611974565b92915050565b600080600080608085870312156119ba576119b961156c565b5b600085013567ffffffffffffffff8111156119d8576119d7611571565b5b6119e48782880161168e565b945050602085013567ffffffffffffffff811115611a0557611a04611571565b5b611a118782880161168e565b935050604085013567ffffffffffffffff811115611a3257611a31611571565b5b611a3e8782880161168e565b9250506060611a4f8782880161198b565b91505092959194509250565b611a648161152e565b8114611a6f57600080fd5b50565b600081359050611a8181611a5b565b92915050565b600060208284031215611a9d57611a9c61156c565b5b6000611aab84828501611a72565b91505092915050565b600082825260208201905092915050565b6000611ad082611740565b611ada8185611ab4565b9350611aea81856020860161175c565b611af381611580565b840191505092915050565b611b07816117df565b82525050565b600060e082019050611b22600083018a611538565b611b2f6020830189611538565b8181036040830152611b418188611ac5565b90508181036060830152611b558187611ac5565b90508181036080830152611b698186611ac5565b9050611b7860a0830185611afe565b611b8560c0830184611afe565b98975050505050505050565b600060e083016000830151611ba96000860182611731565b506020830151611bbc6020860182611731565b5060408301518482036040860152611bd48282611786565b91505060608301518482036060860152611bee8282611786565b91505060808301518482036080860152611c088282611786565b91505060a0830151611c1d60a08601826117f1565b5060c0830151611c3060c08601826117f1565b508091505092915050565b60006020820190508181036000830152611c558184611b91565b905092915050565b7f4e487b7100000000000000000000000000000000000000000000000000000000600052603260045260246000fd5b7f4e487b7100000000000000000000000000000000000000000000000000000000600052602260045260246000fd5b60006002820490506001821680611cd357607f821691505b602082108103611ce657611ce5611c8c565b5b50919050565b600081905092915050565b60008190508160005260206000209050919050565b60008154611d1981611cbb565b611d238186611cec565b94506001821660008114611d3e5760018114611d5357611d86565b60ff1983168652811515820286019350611d86565b611d5c85611cf7565b60005b83811015611d7e57815481890152600182019150602081019050611d5f565b838801955050505b50505092915050565b6000611d9b8284611d0c565b915081905092915050565b7f4e487b7100000000000000000000000000000000000000000000000000000000600052601160045260246000fd5b6000611de08261152e565b91507fffffffffffffffffffffffffffffffffffffffffffffffffffffffffffffffff8203611e1257611e11611da6565b5b600182019050919050565b6000611e288261152e565b9150611e338361152e565b9250828201905080821115611e4b57611e4a611da6565b5b92915050565b60008190508160005260206000209050919050565b60006020601f8301049050919050565b600082821b905092915050565b600060088302611eb37fffffffffffffffffffffffffffffffffffffffffffffffffffffffffffffffff82611e76565b611ebd8683611e76565b95508019841693508086168417925050509392505050565b6000819050919050565b6000611efa611ef5611ef08461152e565b611ed5565b61152e565b9050919050565b6000819050919050565b611f1483611edf565b611f28611f2082611f01565b848454611e83565b825550505050565b600090565b611f3d611f30565b611f48818484611f0b565b505050565b5b81811015611f6c57611f61600082611f35565b600181019050611f4e565b5050565b601f821115611fb157611f8281611e51565b611f8b84611e66565b81016020851015611f9a578190505b611fae611fa685611e66565b830182611f4d565b50505b505050565b600082821c905092915050565b6000611fd460001984600802611fb6565b1980831691505092915050565b6000611fed8383611fc3565b9150826002028217905092915050565b61200682611740565b67ffffffffffffffff81111561201f5761201e611591565b5b6120298254611cbb565b612034828285611f70565b600060209050601f8311600181146120675760008415612055578287015190505b61205f8582611fe1565b8655506120c7565b601f19841661207586611e51565b60005b8281101561209d57848901518255600182019150602085019450602081019050612078565b868310156120ba57848901516120b6601f891682611fc3565b8355505b6001600288020188555050505b505050505050565b60006120ea6120e56120e0846117bf565b611ed5565b6117bf565b9050919050565b60006120fc826120cf565b9050919050565b600061210e826120f1565b9050919050565b61211e81612103565b82525050565b600060a082019050818103600083015261213e8188611ac5565b905081810360208301526121528187611ac5565b905081810360408301526121668186611ac5565b90506121756060830185611afe565b6121826080830184612115565b9695505050505050565b7f496e76616c6964207472616e73616374696f6e20696e64657800000000000000600082015250565b60006121c2601983611ab4565b91506121cd8261218c565b602082019050919050565b600060208201905081810360008301526121f1816121b5565b9050919050565b60006122038261152e565b915061220e8361152e565b925082820390508181111561222657612225611da6565b5b92915050565b7f4e6f207472616e73616374696f6e7320666f756e640000000000000000000000600082015250565b6000612262601583611ab4565b915061226d8261222c565b602082019050919050565b6000602082019050818103600083015261229181612255565b905091905056fea26469706673582212205eb47dafc032f5a9b339e410b37243336b622bb0e5f91395db5bcd5dab6b048d64736f6c63430008130033",
  "immutableReferences": {},
  "source": "// SPDX-License-Identifier: UNLICENSED\r\npragma solidity >=0.8.2 <0.9.0;\r\n\r\ncontract DrugSupplyChain {\r\n    struct Transaction {\r\n    uint256 index;\r\n    uint256 timestamp;\r\n    string drugName;\r\n    string drugCode;\r\n    string signature;\r\n    address sender;\r\n    address recipient;\r\n    }\r\n    \r\n    event TransactionAdded(uint256 indexed index,string drugName, string drugCode, string signature, address sender, address recipient);\r\n\r\n    Transaction[] chain;\r\n    uint256 chainCount;\r\n\r\n    constructor() {\r\n        chainCount = 0;\r\n    }\r\n\r\n    function addTransaction(string memory drugName, string memory drugCode, string memory signature, address payable recipient) public {\r\n        chainCount += 1;\r\n\r\n        chain.push(\r\n            Transaction(\r\n                chainCount,\r\n                block.timestamp,\r\n                drugName,\r\n                drugCode,\r\n                signature,\r\n                msg.sender,\r\n                recipient\r\n            )\r\n        );\r\n\r\n        emit TransactionAdded(chainCount,drugName, drugCode, signature, msg.sender, recipient);\r\n    }\r\n\r\n    function getTransaction() public view returns (Transaction[] memory) {\r\n        return chain;\r\n    }\r\n\r\n    function getTransactionByIndex(uint256 index)\r\n        public\r\n        view\r\n        returns (\r\n            uint256,\r\n            uint256,\r\n            string memory,\r\n            string memory,\r\n            string memory,\r\n            address,\r\n            address\r\n        )\r\n    {\r\n        require(index > 0 && index <= chainCount, \"Invalid transaction index\");\r\n        Transaction memory transaction = chain[index - 1];\r\n        return (\r\n            transaction.index,\r\n            transaction.timestamp,\r\n            transaction.drugName,\r\n            transaction.drugCode,\r\n            transaction.signature,\r\n            transaction.sender,\r\n            transaction.recipient\r\n        );\r\n    }\r\n\r\n    function getTransactionCount() public view returns (uint256) {\r\n        return chainCount;\r\n    }\r\n\r\n    function getTransactionsByDrugName(string memory drugName)\r\n        public\r\n        view\r\n        returns (Transaction[] memory)\r\n    {\r\n        uint256 count = 0;\r\n        for (uint256 i = 0; i < chain.length; i++) {\r\n            if (keccak256(bytes(chain[i].drugName)) == keccak256(bytes(drugName))) {\r\n                count++;\r\n            }\r\n        }\r\n\r\n        Transaction[] memory transactions = new Transaction[](count);\r\n        uint256 index = 0;\r\n        for (uint256 i = 0; i < chain.length; i++) {\r\n            if (keccak256(bytes(chain[i].drugName)) == keccak256(bytes(drugName))) {\r\n                transactions[index] = chain[i];\r\n                index++;\r\n            }\r\n        }\r\n\r\n        return transactions;\r\n    }\r\n\r\n    function getTransactionsByDrugCode(string memory drugCode)\r\n        public\r\n        view\r\n        returns (Transaction[] memory)\r\n    {\r\n        uint256 count = 0;\r\n        for (uint256 i = 0; i < chain.length; i++) {\r\n            if (keccak256(bytes(chain[i].drugCode)) == keccak256(bytes(drugCode))) {\r\n                count++;\r\n        }\r\n    }\r\n\r\n    Transaction[] memory transactions = new Transaction[](count);\r\n    uint256 index = 0;\r\n    for (uint256 i = 0; i < chain.length; i++) {\r\n        if (keccak256(bytes(chain[i].drugCode)) == keccak256(bytes(drugCode))) {\r\n            transactions[index] = chain[i];\r\n            index++;\r\n        }\r\n    }\r\n\r\n    return transactions;\r\n   }\r\n\r\n    function getLastTransaction() public view returns (Transaction memory) {\r\n       require(chainCount > 0, \"No transactions found\");\r\n       return chain[chainCount - 1];\r\n    }\r\n    \r\n\r\n    \r\n}",
  "sourcePath": "C:\\Users\\SAIFUR\\Desktop\\SPL-03\\MediQuick\\server\\contracts\\DrugSupplyChain.sol",
  "compiler": {
    "name": "solc",
    "version": "0.8.19+commit.7dd6d404.Emscripten.clang"
  },
  "schemaVersion": "3.4.13",
  "updatedAt": "2023-05-12T05:14:08.310Z",
  "networkType": "ethereum",
  "devdoc": {
    "kind": "dev",
    "methods": {},
    "version": 1
  },
  "userdoc": {
    "kind": "user",
    "methods": {},
    "version": 1
  }
}